:020000040800F2
:10000000E8040020450100084F140008F111000821
:100010004D140008130200084F17000800000000EC
:100020000000000000000000000000005314000861
:1000300015020008000000005114000855140008C3
:100040005F0100085F0100085F0100085F01000810
:100050005F0100085F010008170200081D02000888
:1000600023020008290200085F0100085F01000860
:100070005F0100085F0100085F0100085F010008E0
:100080005F0100085F010008B10100085F0100087E
:100090005F0100085F0100085F0100085F010008C0
:1000A0005F0100085F0100085F0100085F010008B0
:1000B0005F0100085F0100085F0100085F010008A0
:1000C0005F0100085F0100085F0100085F01000890
:1000D0005F0100085F0100085F0100085F01000880
:1000E0005F0100085F0100085F0100085F01000870
:1000F0005F0100085F0100085F0100085F01000860
:100100005F0100085F0100085F0100085F0100084F
:100110005F0100085F0100085F0100085F0100083F
:100120005F0100085F0100085F0100085F0100082F
:10013000DFF80CD000F02AF80048004791170008BB
:10014000E80400200648804706480047FEE7FEE72F
:10015000FEE7FEE7FEE7FEE7FEE7FEE7FEE7FEE777
:10016000D114000831010008D2B201E000F8012BDF
:10017000491EFBD270470022F6E710B513460A4627
:1001800004461946FFF7F0FF204610BD064C074D08
:1001900006E0E06840F0010394E807009847103457
:1001A000AC42F6D3FFF7C8FFDC170008FC170008C5
:1001B000014800F0BCB800007000002070B5044693
:1001C00000688168C943C90717D1816821F001011E
:1001D000816000F0F1FA05460AE000BF00F0ECFA99
:1001E000401B022804D920688068C043C00706D09D
:1001F00020688068C043C007F0D0002070BDA06AAE
:1002000040F01000A062E06A40F00100E0620120CE
:1002100070BDFEE77047012000F0C0B9022000F079
:10022000BDB9042000F0BAB9082000F0B7B9704792
:10023000F8B50024009490F824202546012A12D015
:10024000012280F824204A681F23072A0DD206685D
:10025000776B521E02EB820293409F430B689340E0
:100260001F43776319E00220F8BD06680D2A0AD201
:10027000376BD21F02EB820293409F430B6893407F
:100280001F43376309E0F76A0D3A02EB820293409D
:100290009F430B6893401F43F7620A680723066871
:1002A0000A2A0AD3F7680A3A02EB420293409F43B4
:1002B0008B6893401F43F76008E0376902EB420206
:1002C00093409F438B6893401F4337610A68102A0D
:1002D00001D0112A20D1124B02689A4217D193689B
:1002E0001B0219D4936843F4000393600968102932
:1002F00012D10C490C4A0968B1FBF2F101EB810102
:10030000490000E0491E00910029FBD104E0816A08
:1003100041F020018162012480F824502046F8BD7C
:10032000002401406C00002040420F00704770B56F
:100330000446006806684568A90625D5B10723D597
:10034000A16AC90603D4A16A41F40071A16281685F
:10035000C1F34241072910D1217B71B9416821F0D5
:1003600020014160A06A20F48070A062A06AC004ED
:1003700003D4A06A40F00100A0622046FFF7D6FF38
:1003800021686FF01200086028062ED570072CD562
:10039000A06AC00603D4A06A40F40050A06220689E
:1003A0008168C1F30231072909D04168490515D494
:1003B0008168C1F34241072910D1217B71B941689D
:1003C00021F080014160A06A20F48050A062A06A00
:1003D000C00503D4A06A40F00100A0622046FFF7E8
:1003E00026FF21686FF00C00086068060CD5F00746
:1003F0000AD0A06A40F48030A062204600F096F84F
:1004000021686FF00100086070BD00002DE9F04127
:1004100004004FF000057FD0A06A002628B9E662EC
:1004200084F82460204600F083F82046FFF7C6FEDB
:10043000A16AC90600D420B1A06A40F01000A062F1
:100440006AE0A16A21F4885141F00201A1623349B6
:1004500023688B42E16904D1B1F5402F01D14FF4FB
:100460000021277B4FF4807C41EA470261680A4300
:10047000A168614508D0012906D0002194F814E054
:10048000BEF1010F02D00AE06146F7E7C7B1A76AE3
:1004900047F02007A762E76A47F00107E7625F6855
:1004A00027F469470F435F60236899681C4F394000
:1004B00011439960A16861450BD0012909D00CE076
:1004C000DFF860E0A7690EEB47370F4347F40061A0
:1004D000E5E7218A0D05A5F580152168CB6A23F48F
:1004E00070032B43CB62216889680F4B19409142FE
:1004F00008D1E662A16A21F0020141F00101A16286
:10050000BDE8F081A06A20F0020040F01000A06277
:10051000E06A40F00100E0620120F1E7003C0140A8
:10052000FDF7E1FF00E0FFFFFE0E1FFF7047000038
:1005300000B585B0002100910191029103910068FE
:100540001249884220D11248816941F400718161C9
:10055000816901F400710491816941F004018161B4
:100560008069694600F00400049001200090032097
:100570000190084800F01EF800221146122000F0F9
:1005800087F9122000F076F905B000BD0024014083
:10059000001002400008014070470000044910B5F7
:1005A0000A68024202D00860FFF7F6FF10BD0000A3
:1005B000140401402DE9F84FDFF8C8910024A9F197
:1005C000040B23460F2709F1040AABF1040ED1E016
:1005D0000125A54006EA0502AA4276D1DFF8A8C1A6
:1005E0004E68A6EB0C0866452BD00DDC032E34D0EC
:1005F00005DC36B3012E19D0022E2FD11BE0112EAF
:1006000016D0122E2AD119E0B8F5881F19D006DCB1
:10061000B8F5803F15D0B8F5801F1FD111E0B8F5AF
:10062000001F0ED0B8F5041F18D10AE0CB6815E002
:10063000CB681B1D12E0CB6808330FE0CB680C338E
:100640000CE08B682BB1012B4FF0080303D0456100
:1006500004E0042302E0056100E00023FF2A01D842
:10066000064601E000F104064FEA840501D9A5F130
:100670002005D6F8008007FA05FC28EA0C0803FAE2
:1006800005F548EA0508C6F800804D68ED0070D50C
:100690003E4DAE6946F00106AE61AD6924F0030639
:1006A00005F0010500953A4D06EB050CDCF8085005
:1006B000A607360F07FA06F825EA0805DFF8D48002
:1006C000404503D14FF0000825E052E0DFF8C88034
:1006D000404502D14FF001081DE0DFF8C0804045E1
:1006E00002D14FF0020816E0DFF8B480404502D195
:1006F0004FF003080FE0DFF8AC80404502D14FF027
:10070000040808E0DFF8A080404502D14FF005085A
:1007100001E04FF0060808FA06F848EA0508CCF8A8
:1007200008804D68D9F80060ED024D4601D51643AA
:1007300000E096432E604D68DAF80060AD02554641
:1007400001D5164300E096432E604D68DBF800604B
:10075000AD035D4601D5164300E096432E604D681B
:10076000DEF80060ED03754601D5164300E09643C0
:100770002E60641C0A681646E2407FF429AFBDE88B
:10078000F88F000008040140000011100010024022
:100790000000014000080140000C01400010014031
:1007A0000014014000180140001C01400AB1016121
:1007B00070470904FBE700000148806870470000AB
:1007C000600000200248816802781144816070470F
:1007D00060000020074810B5016841F01001016079
:1007E000032000F075F8002000F006F800F024F86F
:1007F000002010BD0020024070B50D4D04464FF49E
:100800007A712878B1FBF0F00A490968B1FBF0F081
:1008100000F032FB48B9102C07D200222146501EAE
:1008200000F036F800206C6070BD012070BD000043
:10083000600000206C0000200C4808B5816941F080
:1008400001018161816901F001010091C16941F0FB
:100850008051C161C06900F0805000900448416837
:1008600021F0E06141F00071416008BD00100240DC
:1008700000000140002809DB00F01F020121914027
:100880004009800000F1E020C0F80011704700002E
:10089000F0B40E4B1B680C46C3F30223C3F10705EB
:1008A000042D00D90425191D072901D2002300E0D9
:1008B000DB1E012606FA05F1491E214099409E40A3
:1008C000761E16403143F0BC00F042BF0CED00E054
:1008D000064900F0070208684FF6FF03184040EA97
:1008E0000220034A10430860704700000CED00E04E
:1008F0000000FA052DE9F84305460078354CC0079D
:1009000054D0E0690026C00008D4E06940F080506F
:10091000E061E069012600F0805000902E480168F7
:10092000C90512D40168804641F480710160FFF767
:1009300043FF074605E000BFFFF73EFFC01B6428EA
:1009400023D8D8F80000C005F6D5206A10F440700E
:1009500021D0A98801F4407181421CD0206A1F492E
:10096000012220F440700A6000220A602062C00761
:1009700011D0FFF721FF074641F2883808E000BF99
:10098000FFF71AFFC11B414502D90320BDE8F883D8
:10099000206A8007F4D5206A696820F44070084313
:1009A00020621EB1E06920F08050E0612878800765
:1009B00005D56068A96820F4404008436060287845
:1009C000C00605D56068696920F48000084360604E
:1009D0000020DBE70010024000700040400442426B
:1009E0002DE9F0470F46050061D0434E306800F016
:1009F0000700B84209D2306820F007003843306061
:100A0000306800F00700B84251D128683B4C81079C
:100A100012D5400703D5606840F4E0606060287834
:100A2000000703D5606840F4605060606068A968A2
:100A300020F0F000084360602878C00728D068687C
:100A4000012810D02168022810D0890700292EDA49
:100A5000616821F0030101436160FFF7ADFE80464C
:100A600041F288390DE021688903EFE78901EDE75C
:100A7000FFF7A2FEA0EB0801494502D90320BDE81B
:100A8000F0876068696800F00C00B0EB810FEFD16F
:100A9000306800F00700B8420BD9306820F007003A
:100AA00038433060306800F00700B84201D00120C0
:100AB000E5E72878400705D56068E96820F4E0603C
:100AC000084360602878000706D56068296920F42B
:100AD000605040EAC100606000F018F86168084AA0
:100AE000C1F30311515CC84006490860064800681C
:100AF000FFF782FE0020C2E7002002400010024003
:100B0000CA1700086C000020640000200E4A5168DB
:100B10000E4801F00C03042B11D0082B0FD10C4808
:100B2000C1F38343C903C05C0AD55168084AC1F3C5
:100B30004041921E515C054A5043B0FBF1F07047B2
:100B400004494843704700000010024000127A0038
:100B5000BA17000800093D002DE9F84F040070D0D5
:100B60002078C04DC00749D06868C0F381000128D3
:100B700007D06868C0F38100022809D16868C00303
:100B800006D52868800339D560680028E7D035E0AD
:100B90006068B0F5803F0BD010B1B0F5A02F11D038
:100BA000286820F480302860286820F4802002E043
:100BB000286840F480302860606890B1FFF7FCFD41
:100BC00006460AE0286840F480202860F0E700BF6D
:100BD000FFF7F2FD801B642873D828688003F7D5DF
:100BE0000CE0FFF7E9FD064605E000BFFFF7E4FD76
:100BF000801B6428F0D828688003F7D420789A4EA8
:100C000080074FF001094FF0000839D5686810F0EF
:100C10000C0F07D06868C0F38100022809D168680A
:100C2000C00306D42868800714D52069012808D19C
:100C300010E02069B0B1C6F80090FFF7BDFD07468F
:100C400005E00AE1FFF7B8FDC01B0228C4D82868F8
:100C50008007F7D52868616920F0F80040EAC100F4
:100C600028600DE0C6F80080FFF7A6FD074604E007
:100C7000FFF7A2FDC01B022823D828688007F7D4FD
:100C8000207800072CD57948A169D9B1C0F8009027
:100C9000FFF792FD074604E0FFF78EFDC01B022818
:100CA0000FD8686A8007F7D571484FF4FA51006889
:100CB000B0FBF1F0009000BF0098411E0091FAD205
:100CC0000EE080E0C0F80080FFF776FD074604E004
:100CD000FFF772FDC01B022875D8686A8007F7D439
:100CE0002078400760D5E8690027C00008D4E8698B
:100CF00040F08050E861E869012700F080500090E2
:100D00005C480168C90513D40168834641F48071C9
:100D10000160FFF751FD824606E000BFFFF74CFD82
:100D2000A0EB0A0064284ED8DBF80000C005F5D51A
:100D3000E06801280AD008B1052813D0286A20F0FD
:100D400001002862286A20F0040002E0286A40F0CE
:100D500001002862E06841F2883B98B1FFF72CFD62
:100D600082460BE0286A40F004002862EEE700BFEC
:100D7000FFF722FDA0EB0A0159455AD8286A8007DF
:100D8000F6D50CE0FFF718FD824605E0FFF714FDED
:100D9000A0EB0A0159454CD8286A8007F6D41FB148
:100DA000E86920F08050E861E06988B36968C1F3C0
:100DB0008101022944D00228C6F8608004D0FFF7E0
:100DC000FBFC044638E034E0FFF7F6FC074604E09D
:100DD000FFF7F2FCC01B02282BD828688001F7D44B
:100DE000206AB0F5803F05D16868A16820F4003022
:100DF00008436860D4E908010843696821F4741164
:100E000008436860C6F86090FFF7D6FC044606E029
:100E100025E000BFFFF7D0FC001B022809D8286896
:100E20008001F7D51BE000BFFFF7C6FC001B0228BE
:100E300002D90320BDE8F88F28688001F4D40EE0C1
:100E40000128F7D06868226A00F48031914204D109
:100E5000616A00F47010884201D00120EAE70020A6
:100E6000E8E70000001002400000424280044242D5
:100E70006C0000200070004010B5401EB0F1807F73
:100E800001D3012010BD4FF0E02460610F216017F5
:100E900000F05EFC0020A06107202061002010BD52
:100EA00070B590F83C20012A2CD0012480F83C40F9
:100EB000022280F83D2003685A689D6822F070067F
:100EC0000A6832435A60104B02689A420ED00F4BA8
:100ED0009A420BD0B2F1804F08D00D4B9A4205D008
:100EE0000C4B9A4202D00C4B9A4204D1496825F02F
:100EF00080031943916080F83D40002180F83C1048
:100F0000084670BD022070BD002C01400034014035
:100F10000004004000080040000C004010B5040030
:100F200003D094F83D0010B107E0012010BD00206F
:100F300084F83C00204600F01FF8022084F83D00B1
:100F4000211D206800F0C6FA012084F8460084F8CC
:100F50003E0084F83F0084F8400084F8410084F8A3
:100F6000420084F8430084F8440084F8450084F883
:100F70003D00002010BD000008B500680649884209
:100F800008D10648C16941F00201C161C06900F0A1
:100F90000200009008BD0000000400400010024064
:100FA00070B5044690F83C000025012817D00126B2
:100FB00084F83C60022084F83D002068826822F0BA
:100FC000770222F47F4282600868502838D00DDC16
:100FD00020284FD005DC90B3102811D14AE0022020
:100FE00070BD302846D040280AD13BE060282FD081
:100FF00070280DD0B0F5805F03D0B0F5005F12D03F
:10100000012584F83D60002084F83C00284670BD2E
:10101000CB68D1E90121206800F0A2FA206881683C
:1010200041F0770109E0CB68D1E90121206800F0A7
:1010300097FA2068816841F480418160E1E719E016
:10104000CA684968206800F05FFB5021206806E00C
:10105000CA684968206800F068FB6021206800F0D9
:1010600089FACEE7CA684968206800F04DFB402144
:101070002068F4E7226801461046F0E700B585B025
:101080000021009101910291039100680B4988426F
:1010900011D10B48816941F0040181618069694681
:1010A00000F0040004904020009002200190039082
:1010B0000448FFF77FFA05B000BD000000040040BF
:1010C000001002400008014070B5044690F83C0052
:1010D00000260D4601280FD0012084F83C006AB19B
:1010E000042A1DD0082A2FD00C2A3FD00126002028
:1010F00084F83C00304670BD022070BD206800F0CE
:1011000041FA2068816941F00801816120688169A4
:1011100021F004018161206881692A69114311E08D
:10112000206800F05FFA2068816941F40061816104
:101130002068816921F480618161206881692A6960
:1011400041EA02218161D2E7206800F081FA20683B
:10115000C16941F00801C1612068C16921F0040141
:10116000C1612068C1692A69114311E0206800F05B
:10117000A3FA2068C16941F40061C1612068C169B6
:1011800021F48061C1612068C1692A6941EA0221B4
:10119000C161ACE710B5040003D094F83D0010B174
:1011A00007E0012010BD002084F83C00204600F03C
:1011B0001EF8022084F83D00211D206800F08AF905
:1011C000012084F8460084F83E0084F83F0084F84B
:1011D000400084F8410084F8420084F8430084F819
:1011E000440084F8450084F83D00002010BD70479D
:1011F000FEE700003EB500241048009401940294DC
:101200000D498460016004730475012505614FF484
:1012100060214460C161FFF7F9F808B172B6FEE7DA
:10122000CDE90045694605480295FFF701F8002819
:1012300001D072B6FEE73EBD0024014070000020E0
:101240002DE9F04F85B00024544800940194029495
:101250000394816941F010018161816901F01001FD
:101260000491816941F004018161816901F0040107
:101270000491816941F008018161816901F00801EF
:101280000491816941F0200181618069DFF810914A
:1012900000F020004FF4787504900022294648465B
:1012A000FFF784FADFF8FCB04EF607470022394614
:1012B0005846FFF77BFADFF8F0A04FF4F858002209
:1012C00041465046FFF772FA0F2000903748CDE9AB
:1012D000010469464846FFF76DF948F21E00CDE962
:1012E0000004694650460294FFF764F9009503260E
:1012F00001250396CDE9015469464846FFF75AF99E
:1013000000970396CDE9015469465846FFF752F914
:10131000CDF800800396CDE9015469465046FFF7A9
:1013200049F94FF4E050CDE900046946484602947B
:10133000FFF740F90420CDE9000469461C480294F7
:10134000FFF738F94FF47E70CDE90004694658463E
:101350000294FFF72FF9002211460620FFF798FAB2
:101360000620FFF787FA002211460720FFF790FAC0
:101370000720FFF77FFA002211460820FFF788FABE
:101380000820FFF777FA002211460920FFF780FABC
:101390000920FFF76FFA05B0BDE8F08F001002409A
:1013A00000100140000C0140000801400000111035
:1013B0000014014010B58EB00024079408940994DD
:1013C0000A940B941C2168460C94FEF7D4FE1E4828
:1013D0001C4901603F21C0E9011440F2E731C0E936
:1013E00003148461FFF79AFD08B172B6FEE74FF46B
:1013F0008050079007A91448FFF7D2FD08B172B6D4
:10140000FEE71148FFF7C6FE08B172B6FEE70B947F
:101410000BA90D480C94FFF743FD08B172B6FEE727
:101420006020CDE900040294002269460648049435
:10143000FFF74AFE08B172B6FEE70348FFF71EFE4B
:101440000EB010BD00040040A0000020FEE7FEE743
:1014500070477047FFF7B6B930B595B02821684698
:10146000FEF789FE14210AA8FEF785FE18210FA8B1
:10147000FEF781FE022401200490009410200590C4
:1014800000254FF46010CDE9085007946846FFF737
:1014900063FB08B172B6FEE70AA90F2081E83100AC
:1014A0004FF48060CDE90D0502210AA8FFF798FAF4
:1014B00008B172B6FEE74FF4404011900F940FA8A8
:1014C000FFF718FA002801D072B6FEE715B030BD5C
:1014D00070470000F0B502681C4B1D4D1D4E1E4F9D
:1014E0001E4C4FF0804C984209D0A04207D0604576
:1014F00005D0A84203D0B04201D0B84204D122F0B6
:10150000700E4A6842EA0E02984209D0A04207D003
:10151000604505D0A84203D0B04201D0B84203D103
:1015200022F44075CA682A434D6922F080022A439A
:1015300002608A68C2620A688262984201D0A04250
:1015400001D10969016301214161F0BD002C014015
:101550000004004000080040000C0040003401403E
:1015600010B5846842EA032224F47F440A432243EC
:10157000826010BD826822F070020A4342F00701C7
:1015800081607047F0B5036A026A22F001020262CC
:1015900042688469124E24F073050C682C4323F0D2
:1015A00002058B682B430D4DA84201D0B04205D1F6
:1015B00023F00807CB683B4323F00403A84201D083
:1015C000B04205D14D6922F4407215438A692A431D
:1015D00042608461496841630362F0BD002C0140B0
:1015E00000340140F0B5026A036A23F0100303627D
:1015F000436884690D6824F4E64444EA05248D6850
:1016000022F0200242EA05120F4D104EA84201D0EE
:10161000B04206D1CF6822F0800242EA071222F0DF
:101620004002A84201D0B04207D14D6923F4406383
:1016300043EA85038D6943EA850343608461496811
:1016400081630262F0BD0000002C014000340140C3
:10165000F0B5026A036A23F4807303624368C469C5
:1016600022F4007224F073050C68124E2C438D682E
:1016700042EA05220E4DA84201D0B04206D1CF6801
:1016800022F4006242EA072222F48062A84201D0DA
:10169000B04207D14D6923F4405343EA05138D69E5
:1016A00043EA05134360C4614968C1630262F0BD47
:1016B000002C01400034014030B5046A026A22F473
:1016C000805202624268C3690D6823F4E64343EA2C
:1016D00005238D6824F4005444EA0534084DA842DB
:1016E00002D0084DA84204D14D6922F4804242EA5A
:1016F00085124260C36149680164046230BD000024
:10170000002C01400034014010B5036A046A24F043
:1017100001040462846924F0F00444EA021423F012
:101720000A020A438461026210BD10B5036A046AAA
:1017300024F010040462846923F0A00324F47044AC
:1017400044EA023243EA01118261016210BDFEE700
:101750000907090E002804DB00F1E02080F80014DE
:10176000704700F00F0000F1E02080F8141D704772
:1017700002E008C8121F08C1002AFAD1704770475A
:10178000002001E001C1121F002AFBD170470000B8
:10179000FFF720F8FFF760FEFFF752FDFFF72AFD85
:1017A000FFF708FE034C0122A1882068FEF7FEFF28
:1017B000F9E700000000002001020203040506070B
:1017C00008090A0B0C0D0E0F10100000000000009D
:1017D000000001020304060708090000FC170008C6
:1017E0000000002070000000701700086C1800084E
:1017F00070000020780400008017000800080140F5
:10180000001000000008014000080000000801402E
:101810000004000000080140000200000008014030
:101820000001000000100140000200000010014013
:101830000001000000100140800000000010014085
:1018400040000000000C014000800000000C01403E
:1018500000400000000C01400020000001000000DA
:0C18600010000000000000000024F40054
:0400000508000131BD
:00000001FF
